{
  "contractName": "MyNFT",
  "abi": [
    {
      "inputs": [],
      "stateMutability": "nonpayable",
      "type": "constructor"
    },
    {
      "anonymous": false,
      "inputs": [
        {
          "indexed": true,
          "internalType": "address",
          "name": "owner",
          "type": "address"
        },
        {
          "indexed": true,
          "internalType": "address",
          "name": "approved",
          "type": "address"
        },
        {
          "indexed": true,
          "internalType": "uint256",
          "name": "tokenId",
          "type": "uint256"
        }
      ],
      "name": "Approval",
      "type": "event"
    },
    {
      "anonymous": false,
      "inputs": [
        {
          "indexed": true,
          "internalType": "address",
          "name": "owner",
          "type": "address"
        },
        {
          "indexed": true,
          "internalType": "address",
          "name": "operator",
          "type": "address"
        },
        {
          "indexed": false,
          "internalType": "bool",
          "name": "approved",
          "type": "bool"
        }
      ],
      "name": "ApprovalForAll",
      "type": "event"
    },
    {
      "anonymous": false,
      "inputs": [
        {
          "indexed": false,
          "internalType": "uint256",
          "name": "_fromTokenId",
          "type": "uint256"
        },
        {
          "indexed": false,
          "internalType": "uint256",
          "name": "_toTokenId",
          "type": "uint256"
        }
      ],
      "name": "BatchMetadataUpdate",
      "type": "event"
    },
    {
      "anonymous": false,
      "inputs": [
        {
          "indexed": false,
          "internalType": "uint256",
          "name": "_tokenId",
          "type": "uint256"
        }
      ],
      "name": "MetadataUpdate",
      "type": "event"
    },
    {
      "anonymous": false,
      "inputs": [
        {
          "indexed": true,
          "internalType": "address",
          "name": "from",
          "type": "address"
        },
        {
          "indexed": true,
          "internalType": "address",
          "name": "to",
          "type": "address"
        },
        {
          "indexed": true,
          "internalType": "uint256",
          "name": "tokenId",
          "type": "uint256"
        }
      ],
      "name": "Transfer",
      "type": "event"
    },
    {
      "inputs": [
        {
          "internalType": "address",
          "name": "to",
          "type": "address"
        },
        {
          "internalType": "uint256",
          "name": "tokenId",
          "type": "uint256"
        }
      ],
      "name": "approve",
      "outputs": [],
      "stateMutability": "nonpayable",
      "type": "function"
    },
    {
      "inputs": [
        {
          "internalType": "address",
          "name": "owner",
          "type": "address"
        }
      ],
      "name": "balanceOf",
      "outputs": [
        {
          "internalType": "uint256",
          "name": "",
          "type": "uint256"
        }
      ],
      "stateMutability": "view",
      "type": "function",
      "constant": true
    },
    {
      "inputs": [
        {
          "internalType": "uint256",
          "name": "tokenId",
          "type": "uint256"
        }
      ],
      "name": "getApproved",
      "outputs": [
        {
          "internalType": "address",
          "name": "",
          "type": "address"
        }
      ],
      "stateMutability": "view",
      "type": "function",
      "constant": true
    },
    {
      "inputs": [
        {
          "internalType": "address",
          "name": "owner",
          "type": "address"
        },
        {
          "internalType": "address",
          "name": "operator",
          "type": "address"
        }
      ],
      "name": "isApprovedForAll",
      "outputs": [
        {
          "internalType": "bool",
          "name": "",
          "type": "bool"
        }
      ],
      "stateMutability": "view",
      "type": "function",
      "constant": true
    },
    {
      "inputs": [],
      "name": "name",
      "outputs": [
        {
          "internalType": "string",
          "name": "",
          "type": "string"
        }
      ],
      "stateMutability": "view",
      "type": "function",
      "constant": true
    },
    {
      "inputs": [
        {
          "internalType": "uint256",
          "name": "",
          "type": "uint256"
        }
      ],
      "name": "nfts",
      "outputs": [
        {
          "internalType": "uint256",
          "name": "price",
          "type": "uint256"
        },
        {
          "internalType": "bool",
          "name": "forSale",
          "type": "bool"
        }
      ],
      "stateMutability": "view",
      "type": "function",
      "constant": true
    },
    {
      "inputs": [
        {
          "internalType": "uint256",
          "name": "tokenId",
          "type": "uint256"
        }
      ],
      "name": "ownerOf",
      "outputs": [
        {
          "internalType": "address",
          "name": "",
          "type": "address"
        }
      ],
      "stateMutability": "view",
      "type": "function",
      "constant": true
    },
    {
      "inputs": [
        {
          "internalType": "address",
          "name": "from",
          "type": "address"
        },
        {
          "internalType": "address",
          "name": "to",
          "type": "address"
        },
        {
          "internalType": "uint256",
          "name": "tokenId",
          "type": "uint256"
        }
      ],
      "name": "safeTransferFrom",
      "outputs": [],
      "stateMutability": "nonpayable",
      "type": "function"
    },
    {
      "inputs": [
        {
          "internalType": "address",
          "name": "from",
          "type": "address"
        },
        {
          "internalType": "address",
          "name": "to",
          "type": "address"
        },
        {
          "internalType": "uint256",
          "name": "tokenId",
          "type": "uint256"
        },
        {
          "internalType": "bytes",
          "name": "data",
          "type": "bytes"
        }
      ],
      "name": "safeTransferFrom",
      "outputs": [],
      "stateMutability": "nonpayable",
      "type": "function"
    },
    {
      "inputs": [
        {
          "internalType": "address",
          "name": "operator",
          "type": "address"
        },
        {
          "internalType": "bool",
          "name": "approved",
          "type": "bool"
        }
      ],
      "name": "setApprovalForAll",
      "outputs": [],
      "stateMutability": "nonpayable",
      "type": "function"
    },
    {
      "inputs": [
        {
          "internalType": "bytes4",
          "name": "interfaceId",
          "type": "bytes4"
        }
      ],
      "name": "supportsInterface",
      "outputs": [
        {
          "internalType": "bool",
          "name": "",
          "type": "bool"
        }
      ],
      "stateMutability": "view",
      "type": "function",
      "constant": true
    },
    {
      "inputs": [],
      "name": "symbol",
      "outputs": [
        {
          "internalType": "string",
          "name": "",
          "type": "string"
        }
      ],
      "stateMutability": "view",
      "type": "function",
      "constant": true
    },
    {
      "inputs": [
        {
          "internalType": "uint256",
          "name": "tokenId",
          "type": "uint256"
        }
      ],
      "name": "tokenURI",
      "outputs": [
        {
          "internalType": "string",
          "name": "",
          "type": "string"
        }
      ],
      "stateMutability": "view",
      "type": "function",
      "constant": true
    },
    {
      "inputs": [
        {
          "internalType": "address",
          "name": "from",
          "type": "address"
        },
        {
          "internalType": "address",
          "name": "to",
          "type": "address"
        },
        {
          "internalType": "uint256",
          "name": "tokenId",
          "type": "uint256"
        }
      ],
      "name": "transferFrom",
      "outputs": [],
      "stateMutability": "nonpayable",
      "type": "function"
    },
    {
      "inputs": [
        {
          "internalType": "string",
          "name": "tokenURI",
          "type": "string"
        },
        {
          "internalType": "uint256",
          "name": "price",
          "type": "uint256"
        }
      ],
      "name": "mint",
      "outputs": [
        {
          "internalType": "uint256",
          "name": "",
          "type": "uint256"
        }
      ],
      "stateMutability": "nonpayable",
      "type": "function"
    },
    {
      "inputs": [
        {
          "internalType": "uint256",
          "name": "tokenId",
          "type": "uint256"
        }
      ],
      "name": "buyNFT",
      "outputs": [],
      "stateMutability": "payable",
      "type": "function",
      "payable": true
    },
    {
      "inputs": [
        {
          "internalType": "string",
          "name": "tokenURI",
          "type": "string"
        }
      ],
      "name": "getTokenIdByTokenURI",
      "outputs": [
        {
          "internalType": "uint256",
          "name": "",
          "type": "uint256"
        }
      ],
      "stateMutability": "view",
      "type": "function",
      "constant": true
    },
    {
      "inputs": [
        {
          "internalType": "address",
          "name": "owner",
          "type": "address"
        }
      ],
      "name": "getTokensOfOwner",
      "outputs": [
        {
          "internalType": "uint256[]",
          "name": "",
          "type": "uint256[]"
        }
      ],
      "stateMutability": "view",
      "type": "function",
      "constant": true
    },
    {
      "inputs": [],
      "name": "totalSupply",
      "outputs": [
        {
          "internalType": "uint256",
          "name": "",
          "type": "uint256"
        }
      ],
      "stateMutability": "view",
      "type": "function",
      "constant": true
    }
  ],
  "bytecode": "0x60806040523480156200001157600080fd5b506040518060400160405280600581526020017f4d794e46540000000000000000000000000000000000000000000000000000008152506040518060400160405280600481526020017f4d4e46540000000000000000000000000000000000000000000000000000000081525081600090816200008f919062000324565b508060019081620000a1919062000324565b5050506200040b565b600081519050919050565b7f4e487b7100000000000000000000000000000000000000000000000000000000600052604160045260246000fd5b7f4e487b7100000000000000000000000000000000000000000000000000000000600052602260045260246000fd5b600060028204905060018216806200012c57607f821691505b602082108103620001425762000141620000e4565b5b50919050565b60008190508160005260206000209050919050565b60006020601f8301049050919050565b600082821b905092915050565b600060088302620001ac7fffffffffffffffffffffffffffffffffffffffffffffffffffffffffffffffff826200016d565b620001b886836200016d565b95508019841693508086168417925050509392505050565b6000819050919050565b6000819050919050565b600062000205620001ff620001f984620001d0565b620001da565b620001d0565b9050919050565b6000819050919050565b6200022183620001e4565b6200023962000230826200020c565b8484546200017a565b825550505050565b600090565b6200025062000241565b6200025d81848462000216565b505050565b5b8181101562000285576200027960008262000246565b60018101905062000263565b5050565b601f821115620002d4576200029e8162000148565b620002a9846200015d565b81016020851015620002b9578190505b620002d1620002c8856200015d565b83018262000262565b50505b505050565b600082821c905092915050565b6000620002f960001984600802620002d9565b1980831691505092915050565b6000620003148383620002e6565b9150826002028217905092915050565b6200032f82620000aa565b67ffffffffffffffff8111156200034b576200034a620000b5565b5b62000357825462000113565b6200036482828562000289565b600060209050601f8311600181146200039c576000841562000387578287015190505b62000393858262000306565b86555062000403565b601f198416620003ac8662000148565b60005b82811015620003d657848901518255600182019150602085019450602081019050620003af565b86831015620003f65784890151620003f2601f891682620002e6565b8355505b6001600288020188555050505b505050505050565b613753806200041b6000396000f3fe6080604052600436106101135760003560e01c806342842e0e116100a057806395d89b411161006457806395d89b41146103ee578063a22cb46514610419578063b88d4fde14610442578063c87b56dd1461046b578063e985e9c5146104a857610113565b806342842e0e146102f257806351ed82881461031b5780635de6dc55146103375780636352211e1461037457806370a08231146103b157610113565b8063081812fc116100e7578063081812fc146101fa578063095ea7b31461023757806318160ddd1461026057806323b872dd1461028b578063265aa621146102b457610113565b80624cf74d1461011857806301ffc9a714610155578063056b01ce1461019257806306fdde03146101cf575b600080fd5b34801561012457600080fd5b5061013f600480360381019061013a9190612356565b6104e5565b60405161014c91906123b8565b60405180910390f35b34801561016157600080fd5b5061017c6004803603810190610177919061242b565b61056d565b6040516101899190612473565b60405180910390f35b34801561019e57600080fd5b506101b960048036038101906101b491906124ba565b6105ce565b6040516101c691906123b8565b60405180910390f35b3480156101db57600080fd5b506101e461063d565b6040516101f19190612595565b60405180910390f35b34801561020657600080fd5b50610221600480360381019061021c91906125b7565b6106cf565b60405161022e9190612625565b60405180910390f35b34801561024357600080fd5b5061025e6004803603810190610259919061266c565b610715565b005b34801561026c57600080fd5b5061027561082c565b60405161028291906123b8565b60405180910390f35b34801561029757600080fd5b506102b260048036038101906102ad91906126ac565b61083d565b005b3480156102c057600080fd5b506102db60048036038101906102d691906125b7565b61089d565b6040516102e99291906126ff565b60405180910390f35b3480156102fe57600080fd5b50610319600480360381019061031491906126ac565b6108ce565b005b610335600480360381019061033091906125b7565b6108ee565b005b34801561034357600080fd5b5061035e60048036038101906103599190612728565b610a1d565b60405161036b9190612813565b60405180910390f35b34801561038057600080fd5b5061039b600480360381019061039691906125b7565b610ab4565b6040516103a89190612625565b60405180910390f35b3480156103bd57600080fd5b506103d860048036038101906103d39190612728565b610b3a565b6040516103e591906123b8565b60405180910390f35b3480156103fa57600080fd5b50610403610bf1565b6040516104109190612595565b60405180910390f35b34801561042557600080fd5b50610440600480360381019061043b9190612861565b610c83565b005b34801561044e57600080fd5b5061046960048036038101906104649190612942565b610c99565b005b34801561047757600080fd5b50610492600480360381019061048d91906125b7565b610cfb565b60405161049f9190612595565b60405180910390f35b3480156104b457600080fd5b506104cf60048036038101906104ca91906129c5565b610e0d565b6040516104dc9190612473565b60405180910390f35b6000806009836040516104f89190612a41565b90815260200160405180910390205403610547576040517f08c379a000000000000000000000000000000000000000000000000000000000815260040161053e90612aa4565b60405180910390fd5b6009826040516105579190612a41565b9081526020016040518091039020549050919050565b6000634906490660e01b7bffffffffffffffffffffffffffffffffffffffffffffffffffffffff1916827bffffffffffffffffffffffffffffffffffffffffffffffffffffffff191614806105c757506105c682610ea1565b5b9050919050565b60006105da6007610f83565b60006105e66007610f99565b90506105f23382610fa7565b6105fc81856111c4565b8060098560405161060d9190612a41565b9081526020016040518091039020819055506106293382611268565b610633818461132c565b8091505092915050565b60606000805461064c90612af3565b80601f016020809104026020016040519081016040528092919081815260200182805461067890612af3565b80156106c55780601f1061069a576101008083540402835291602001916106c5565b820191906000526020600020905b8154815290600101906020018083116106a857829003601f168201915b5050505050905090565b60006106da826113fe565b6004600083815260200190815260200160002060009054906101000a900473ffffffffffffffffffffffffffffffffffffffff169050919050565b600061072082610ab4565b90508073ffffffffffffffffffffffffffffffffffffffff168373ffffffffffffffffffffffffffffffffffffffff1603610790576040517f08c379a000000000000000000000000000000000000000000000000000000000815260040161078790612b96565b60405180910390fd5b8073ffffffffffffffffffffffffffffffffffffffff166107af611449565b73ffffffffffffffffffffffffffffffffffffffff1614806107de57506107dd816107d8611449565b610e0d565b5b61081d576040517f08c379a000000000000000000000000000000000000000000000000000000000815260040161081490612c28565b60405180910390fd5b6108278383611451565b505050565b60006108386007610f99565b905090565b61084e610848611449565b8261150a565b61088d576040517f08c379a000000000000000000000000000000000000000000000000000000000815260040161088490612cba565b60405180910390fd5b61089883838361159f565b505050565b60086020528060005260406000206000915090508060000154908060010160009054906101000a900460ff16905082565b6108e983838360405180602001604052806000815250610c99565b505050565b60006008600083815260200190815260200160002090508060010160009054906101000a900460ff16610956576040517f08c379a000000000000000000000000000000000000000000000000000000000815260040161094d90612d26565b60405180910390fd5b8060000154341461099c576040517f08c379a000000000000000000000000000000000000000000000000000000000815260040161099390612d92565b60405180910390fd5b60006109a783610ab4565b90506109b481338561159f565b8073ffffffffffffffffffffffffffffffffffffffff166108fc349081150290604051600060405180830381858888f193505050501580156109fa573d6000803e3d6000fd5b5060008260010160006101000a81548160ff021916908315150217905550505050565b6060600a60008373ffffffffffffffffffffffffffffffffffffffff1673ffffffffffffffffffffffffffffffffffffffff168152602001908152602001600020805480602002602001604051908101604052809291908181526020018280548015610aa857602002820191906000526020600020905b815481526020019060010190808311610a94575b50505050509050919050565b600080610ac083611898565b9050600073ffffffffffffffffffffffffffffffffffffffff168173ffffffffffffffffffffffffffffffffffffffff1603610b31576040517f08c379a0000000000000000000000000000000000000000000000000000000008152600401610b2890612dfe565b60405180910390fd5b80915050919050565b60008073ffffffffffffffffffffffffffffffffffffffff168273ffffffffffffffffffffffffffffffffffffffff1603610baa576040517f08c379a0000000000000000000000000000000000000000000000000000000008152600401610ba190612e90565b60405180910390fd5b600360008373ffffffffffffffffffffffffffffffffffffffff1673ffffffffffffffffffffffffffffffffffffffff168152602001908152602001600020549050919050565b606060018054610c0090612af3565b80601f0160208091040260200160405190810160405280929190818152602001828054610c2c90612af3565b8015610c795780601f10610c4e57610100808354040283529160200191610c79565b820191906000526020600020905b815481529060010190602001808311610c5c57829003601f168201915b5050505050905090565b610c95610c8e611449565b83836118d5565b5050565b610caa610ca4611449565b8361150a565b610ce9576040517f08c379a0000000000000000000000000000000000000000000000000000000008152600401610ce090612cba565b60405180910390fd5b610cf584848484611a41565b50505050565b6060610d06826113fe565b6000600660008481526020019081526020016000208054610d2690612af3565b80601f0160208091040260200160405190810160405280929190818152602001828054610d5290612af3565b8015610d9f5780601f10610d7457610100808354040283529160200191610d9f565b820191906000526020600020905b815481529060010190602001808311610d8257829003601f168201915b505050505090506000610db0611a9d565b90506000815103610dc5578192505050610e08565b600082511115610dfa578082604051602001610de2929190612eb0565b60405160208183030381529060405292505050610e08565b610e0384611ab4565b925050505b919050565b6000600560008473ffffffffffffffffffffffffffffffffffffffff1673ffffffffffffffffffffffffffffffffffffffff16815260200190815260200160002060008373ffffffffffffffffffffffffffffffffffffffff1673ffffffffffffffffffffffffffffffffffffffff16815260200190815260200160002060009054906101000a900460ff16905092915050565b60007f80ac58cd000000000000000000000000000000000000000000000000000000007bffffffffffffffffffffffffffffffffffffffffffffffffffffffff1916827bffffffffffffffffffffffffffffffffffffffffffffffffffffffff19161480610f6c57507f5b5e139f000000000000000000000000000000000000000000000000000000007bffffffffffffffffffffffffffffffffffffffffffffffffffffffff1916827bffffffffffffffffffffffffffffffffffffffffffffffffffffffff1916145b80610f7c5750610f7b82611b1c565b5b9050919050565b6001816000016000828254019250508190555050565b600081600001549050919050565b600073ffffffffffffffffffffffffffffffffffffffff168273ffffffffffffffffffffffffffffffffffffffff1603611016576040517f08c379a000000000000000000000000000000000000000000000000000000000815260040161100d90612f20565b60405180910390fd5b61101f81611b86565b1561105f576040517f08c379a000000000000000000000000000000000000000000000000000000000815260040161105690612f8c565b60405180910390fd5b61106d600083836001611bc7565b61107681611b86565b156110b6576040517f08c379a00000000000000000000000000000000000000000000000000000000081526004016110ad90612f8c565b60405180910390fd5b6001600360008473ffffffffffffffffffffffffffffffffffffffff1673ffffffffffffffffffffffffffffffffffffffff16815260200190815260200160002060008282540192505081905550816002600083815260200190815260200160002060006101000a81548173ffffffffffffffffffffffffffffffffffffffff021916908373ffffffffffffffffffffffffffffffffffffffff160217905550808273ffffffffffffffffffffffffffffffffffffffff16600073ffffffffffffffffffffffffffffffffffffffff167fddf252ad1be2c89b69c2b068fc378daa952ba7f163c4a11628f55a4df523b3ef60405160405180910390a46111c0600083836001611c57565b5050565b6111cd82611b86565b61120c576040517f08c379a00000000000000000000000000000000000000000000000000000000081526004016112039061301e565b60405180910390fd5b8060066000848152602001908152602001600020908161122c91906131ea565b507ff8e1a15aba9398e019f0b49df1a4fde98ee17ae345cb5f6b5e2c27f5033e8ce78260405161125c91906123b8565b60405180910390a15050565b600a60008373ffffffffffffffffffffffffffffffffffffffff1673ffffffffffffffffffffffffffffffffffffffff16815260200190815260200160002080549050600b600083815260200190815260200160002081905550600a60008373ffffffffffffffffffffffffffffffffffffffff1673ffffffffffffffffffffffffffffffffffffffff1681526020019081526020016000208190806001815401808255809150506001900390600052602060002001600090919091909150555050565b3373ffffffffffffffffffffffffffffffffffffffff1661134c83610ab4565b73ffffffffffffffffffffffffffffffffffffffff16146113a2576040517f08c379a000000000000000000000000000000000000000000000000000000000815260040161139990613308565b60405180910390fd5b604051806040016040528082815260200160011515815250600860008481526020019081526020016000206000820151816000015560208201518160010160006101000a81548160ff0219169083151502179055509050505050565b61140781611b86565b611446576040517f08c379a000000000000000000000000000000000000000000000000000000000815260040161143d90612dfe565b60405180910390fd5b50565b600033905090565b816004600083815260200190815260200160002060006101000a81548173ffffffffffffffffffffffffffffffffffffffff021916908373ffffffffffffffffffffffffffffffffffffffff160217905550808273ffffffffffffffffffffffffffffffffffffffff166114c483610ab4565b73ffffffffffffffffffffffffffffffffffffffff167f8c5be1e5ebec7d5bd14f71427d1e84f3dd0314c0f7b2291e5b200ac8c7c3b92560405160405180910390a45050565b60008061151683610ab4565b90508073ffffffffffffffffffffffffffffffffffffffff168473ffffffffffffffffffffffffffffffffffffffff16148061155857506115578185610e0d565b5b8061159657508373ffffffffffffffffffffffffffffffffffffffff1661157e846106cf565b73ffffffffffffffffffffffffffffffffffffffff16145b91505092915050565b8273ffffffffffffffffffffffffffffffffffffffff166115bf82610ab4565b73ffffffffffffffffffffffffffffffffffffffff1614611615576040517f08c379a000000000000000000000000000000000000000000000000000000000815260040161160c9061339a565b60405180910390fd5b600073ffffffffffffffffffffffffffffffffffffffff168273ffffffffffffffffffffffffffffffffffffffff1603611684576040517f08c379a000000000000000000000000000000000000000000000000000000000815260040161167b9061342c565b60405180910390fd5b6116918383836001611bc7565b8273ffffffffffffffffffffffffffffffffffffffff166116b182610ab4565b73ffffffffffffffffffffffffffffffffffffffff1614611707576040517f08c379a00000000000000000000000000000000000000000000000000000000081526004016116fe9061339a565b60405180910390fd5b6004600082815260200190815260200160002060006101000a81549073ffffffffffffffffffffffffffffffffffffffff02191690556001600360008573ffffffffffffffffffffffffffffffffffffffff1673ffffffffffffffffffffffffffffffffffffffff168152602001908152602001600020600082825403925050819055506001600360008473ffffffffffffffffffffffffffffffffffffffff1673ffffffffffffffffffffffffffffffffffffffff16815260200190815260200160002060008282540192505081905550816002600083815260200190815260200160002060006101000a81548173ffffffffffffffffffffffffffffffffffffffff021916908373ffffffffffffffffffffffffffffffffffffffff160217905550808273ffffffffffffffffffffffffffffffffffffffff168473ffffffffffffffffffffffffffffffffffffffff167fddf252ad1be2c89b69c2b068fc378daa952ba7f163c4a11628f55a4df523b3ef60405160405180910390a46118938383836001611c57565b505050565b60006002600083815260200190815260200160002060009054906101000a900473ffffffffffffffffffffffffffffffffffffffff169050919050565b8173ffffffffffffffffffffffffffffffffffffffff168373ffffffffffffffffffffffffffffffffffffffff1603611943576040517f08c379a000000000000000000000000000000000000000000000000000000000815260040161193a90613498565b60405180910390fd5b80600560008573ffffffffffffffffffffffffffffffffffffffff1673ffffffffffffffffffffffffffffffffffffffff16815260200190815260200160002060008473ffffffffffffffffffffffffffffffffffffffff1673ffffffffffffffffffffffffffffffffffffffff16815260200190815260200160002060006101000a81548160ff0219169083151502179055508173ffffffffffffffffffffffffffffffffffffffff168373ffffffffffffffffffffffffffffffffffffffff167f17307eab39ab6107e8899845ad3d59bd9653f200f220920489ca2b5937696c3183604051611a349190612473565b60405180910390a3505050565b611a4c84848461159f565b611a5884848484611c5d565b611a97576040517f08c379a0000000000000000000000000000000000000000000000000000000008152600401611a8e9061352a565b60405180910390fd5b50505050565b606060405180602001604052806000815250905090565b6060611abf826113fe565b6000611ac9611a9d565b90506000815111611ae95760405180602001604052806000815250611b14565b80611af384611de4565b604051602001611b04929190612eb0565b6040516020818303038152906040525b915050919050565b60007f01ffc9a7000000000000000000000000000000000000000000000000000000007bffffffffffffffffffffffffffffffffffffffffffffffffffffffff1916827bffffffffffffffffffffffffffffffffffffffffffffffffffffffff1916149050919050565b60008073ffffffffffffffffffffffffffffffffffffffff16611ba883611898565b73ffffffffffffffffffffffffffffffffffffffff1614159050919050565b611bd384848484611eb2565b600073ffffffffffffffffffffffffffffffffffffffff168473ffffffffffffffffffffffffffffffffffffffff1614611c1257611c118483611eb8565b5b600073ffffffffffffffffffffffffffffffffffffffff168373ffffffffffffffffffffffffffffffffffffffff1614611c5157611c508383611268565b5b50505050565b50505050565b6000611c7e8473ffffffffffffffffffffffffffffffffffffffff16612086565b15611dd7578373ffffffffffffffffffffffffffffffffffffffff1663150b7a02611ca7611449565b8786866040518563ffffffff1660e01b8152600401611cc9949392919061359f565b6020604051808303816000875af1925050508015611d0557506040513d601f19601f82011682018060405250810190611d029190613600565b60015b611d87573d8060008114611d35576040519150601f19603f3d011682016040523d82523d6000602084013e611d3a565b606091505b506000815103611d7f576040517f08c379a0000000000000000000000000000000000000000000000000000000008152600401611d769061352a565b60405180910390fd5b805181602001fd5b63150b7a0260e01b7bffffffffffffffffffffffffffffffffffffffffffffffffffffffff1916817bffffffffffffffffffffffffffffffffffffffffffffffffffffffff191614915050611ddc565b600190505b949350505050565b606060006001611df3846120a9565b01905060008167ffffffffffffffff811115611e1257611e1161222b565b5b6040519080825280601f01601f191660200182016040528015611e445781602001600182028036833780820191505090505b509050600082602001820190505b600115611ea7578080600190039150507f3031323334353637383961626364656600000000000000000000000000000000600a86061a8153600a8581611e9b57611e9a61362d565b5b04945060008503611e52575b819350505050919050565b50505050565b60006001600a60008573ffffffffffffffffffffffffffffffffffffffff1673ffffffffffffffffffffffffffffffffffffffff16815260200190815260200160002080549050611f09919061368b565b90506000600b6000848152602001908152602001600020549050818114612004576000600a60008673ffffffffffffffffffffffffffffffffffffffff1673ffffffffffffffffffffffffffffffffffffffff1681526020019081526020016000208381548110611f7d57611f7c6136bf565b5b9060005260206000200154905080600a60008773ffffffffffffffffffffffffffffffffffffffff1673ffffffffffffffffffffffffffffffffffffffff1681526020019081526020016000208381548110611fdc57611fdb6136bf565b5b906000526020600020018190555081600b600083815260200190815260200160002081905550505b600a60008573ffffffffffffffffffffffffffffffffffffffff1673ffffffffffffffffffffffffffffffffffffffff168152602001908152602001600020805480612053576120526136ee565b5b60019003818190600052602060002001600090559055600b60008481526020019081526020016000206000905550505050565b6000808273ffffffffffffffffffffffffffffffffffffffff163b119050919050565b600080600090507a184f03e93ff9f4daa797ed6e38ed64bf6a1f0100000000000000008310612107577a184f03e93ff9f4daa797ed6e38ed64bf6a1f01000000000000000083816120fd576120fc61362d565b5b0492506040810190505b6d04ee2d6d415b85acef81000000008310612144576d04ee2d6d415b85acef8100000000838161213a5761213961362d565b5b0492506020810190505b662386f26fc10000831061217357662386f26fc1000083816121695761216861362d565b5b0492506010810190505b6305f5e100831061219c576305f5e10083816121925761219161362d565b5b0492506008810190505b61271083106121c15761271083816121b7576121b661362d565b5b0492506004810190505b606483106121e457606483816121da576121d961362d565b5b0492506002810190505b600a83106121f3576001810190505b80915050919050565b6000604051905090565b600080fd5b600080fd5b600080fd5b600080fd5b6000601f19601f8301169050919050565b7f4e487b7100000000000000000000000000000000000000000000000000000000600052604160045260246000fd5b6122638261221a565b810181811067ffffffffffffffff821117156122825761228161222b565b5b80604052505050565b60006122956121fc565b90506122a1828261225a565b919050565b600067ffffffffffffffff8211156122c1576122c061222b565b5b6122ca8261221a565b9050602081019050919050565b82818337600083830152505050565b60006122f96122f4846122a6565b61228b565b90508281526020810184848401111561231557612314612215565b5b6123208482856122d7565b509392505050565b600082601f83011261233d5761233c612210565b5b813561234d8482602086016122e6565b91505092915050565b60006020828403121561236c5761236b612206565b5b600082013567ffffffffffffffff81111561238a5761238961220b565b5b61239684828501612328565b91505092915050565b6000819050919050565b6123b28161239f565b82525050565b60006020820190506123cd60008301846123a9565b92915050565b60007fffffffff0000000000000000000000000000000000000000000000000000000082169050919050565b612408816123d3565b811461241357600080fd5b50565b600081359050612425816123ff565b92915050565b60006020828403121561244157612440612206565b5b600061244f84828501612416565b91505092915050565b60008115159050919050565b61246d81612458565b82525050565b60006020820190506124886000830184612464565b92915050565b6124978161239f565b81146124a257600080fd5b50565b6000813590506124b48161248e565b92915050565b600080604083850312156124d1576124d0612206565b5b600083013567ffffffffffffffff8111156124ef576124ee61220b565b5b6124fb85828601612328565b925050602061250c858286016124a5565b9150509250929050565b600081519050919050565b600082825260208201905092915050565b60005b83811015612550578082015181840152602081019050612535565b60008484015250505050565b600061256782612516565b6125718185612521565b9350612581818560208601612532565b61258a8161221a565b840191505092915050565b600060208201905081810360008301526125af818461255c565b905092915050565b6000602082840312156125cd576125cc612206565b5b60006125db848285016124a5565b91505092915050565b600073ffffffffffffffffffffffffffffffffffffffff82169050919050565b600061260f826125e4565b9050919050565b61261f81612604565b82525050565b600060208201905061263a6000830184612616565b92915050565b61264981612604565b811461265457600080fd5b50565b60008135905061266681612640565b92915050565b6000806040838503121561268357612682612206565b5b600061269185828601612657565b92505060206126a2858286016124a5565b9150509250929050565b6000806000606084860312156126c5576126c4612206565b5b60006126d386828701612657565b93505060206126e486828701612657565b92505060406126f5868287016124a5565b9150509250925092565b600060408201905061271460008301856123a9565b6127216020830184612464565b9392505050565b60006020828403121561273e5761273d612206565b5b600061274c84828501612657565b91505092915050565b600081519050919050565b600082825260208201905092915050565b6000819050602082019050919050565b61278a8161239f565b82525050565b600061279c8383612781565b60208301905092915050565b6000602082019050919050565b60006127c082612755565b6127ca8185612760565b93506127d583612771565b8060005b838110156128065781516127ed8882612790565b97506127f8836127a8565b9250506001810190506127d9565b5085935050505092915050565b6000602082019050818103600083015261282d81846127b5565b905092915050565b61283e81612458565b811461284957600080fd5b50565b60008135905061285b81612835565b92915050565b6000806040838503121561287857612877612206565b5b600061288685828601612657565b92505060206128978582860161284c565b9150509250929050565b600067ffffffffffffffff8211156128bc576128bb61222b565b5b6128c58261221a565b9050602081019050919050565b60006128e56128e0846128a1565b61228b565b90508281526020810184848401111561290157612900612215565b5b61290c8482856122d7565b509392505050565b600082601f83011261292957612928612210565b5b81356129398482602086016128d2565b91505092915050565b6000806000806080858703121561295c5761295b612206565b5b600061296a87828801612657565b945050602061297b87828801612657565b935050604061298c878288016124a5565b925050606085013567ffffffffffffffff8111156129ad576129ac61220b565b5b6129b987828801612914565b91505092959194509250565b600080604083850312156129dc576129db612206565b5b60006129ea85828601612657565b92505060206129fb85828601612657565b9150509250929050565b600081905092915050565b6000612a1b82612516565b612a258185612a05565b9350612a35818560208601612532565b80840191505092915050565b6000612a4d8284612a10565b915081905092915050565b7f546f6b656e2055524920646f6573206e6f742065786973740000000000000000600082015250565b6000612a8e601883612521565b9150612a9982612a58565b602082019050919050565b60006020820190508181036000830152612abd81612a81565b9050919050565b7f4e487b7100000000000000000000000000000000000000000000000000000000600052602260045260246000fd5b60006002820490506001821680612b0b57607f821691505b602082108103612b1e57612b1d612ac4565b5b50919050565b7f4552433732313a20617070726f76616c20746f2063757272656e74206f776e6560008201527f7200000000000000000000000000000000000000000000000000000000000000602082015250565b6000612b80602183612521565b9150612b8b82612b24565b604082019050919050565b60006020820190508181036000830152612baf81612b73565b9050919050565b7f4552433732313a20617070726f76652063616c6c6572206973206e6f7420746f60008201527f6b656e206f776e6572206f7220617070726f76656420666f7220616c6c000000602082015250565b6000612c12603d83612521565b9150612c1d82612bb6565b604082019050919050565b60006020820190508181036000830152612c4181612c05565b9050919050565b7f4552433732313a2063616c6c6572206973206e6f7420746f6b656e206f776e6560008201527f72206f7220617070726f76656400000000000000000000000000000000000000602082015250565b6000612ca4602d83612521565b9150612caf82612c48565b604082019050919050565b60006020820190508181036000830152612cd381612c97565b9050919050565b7f4e4654206973206e6f7420666f722073616c6500000000000000000000000000600082015250565b6000612d10601383612521565b9150612d1b82612cda565b602082019050919050565b60006020820190508181036000830152612d3f81612d03565b9050919050565b7f496e636f72726563742076616c75652073656e74000000000000000000000000600082015250565b6000612d7c601483612521565b9150612d8782612d46565b602082019050919050565b60006020820190508181036000830152612dab81612d6f565b9050919050565b7f4552433732313a20696e76616c696420746f6b656e2049440000000000000000600082015250565b6000612de8601883612521565b9150612df382612db2565b602082019050919050565b60006020820190508181036000830152612e1781612ddb565b9050919050565b7f4552433732313a2061646472657373207a65726f206973206e6f74206120766160008201527f6c6964206f776e65720000000000000000000000000000000000000000000000602082015250565b6000612e7a602983612521565b9150612e8582612e1e565b604082019050919050565b60006020820190508181036000830152612ea981612e6d565b9050919050565b6000612ebc8285612a10565b9150612ec88284612a10565b91508190509392505050565b7f4552433732313a206d696e7420746f20746865207a65726f2061646472657373600082015250565b6000612f0a602083612521565b9150612f1582612ed4565b602082019050919050565b60006020820190508181036000830152612f3981612efd565b9050919050565b7f4552433732313a20746f6b656e20616c7265616479206d696e74656400000000600082015250565b6000612f76601c83612521565b9150612f8182612f40565b602082019050919050565b60006020820190508181036000830152612fa581612f69565b9050919050565b7f45524337323155524953746f726167653a2055524920736574206f66206e6f6e60008201527f6578697374656e7420746f6b656e000000000000000000000000000000000000602082015250565b6000613008602e83612521565b915061301382612fac565b604082019050919050565b6000602082019050818103600083015261303781612ffb565b9050919050565b60008190508160005260206000209050919050565b60006020601f8301049050919050565b600082821b905092915050565b6000600883026130a07fffffffffffffffffffffffffffffffffffffffffffffffffffffffffffffffff82613063565b6130aa8683613063565b95508019841693508086168417925050509392505050565b6000819050919050565b60006130e76130e26130dd8461239f565b6130c2565b61239f565b9050919050565b6000819050919050565b613101836130cc565b61311561310d826130ee565b848454613070565b825550505050565b600090565b61312a61311d565b6131358184846130f8565b505050565b5b818110156131595761314e600082613122565b60018101905061313b565b5050565b601f82111561319e5761316f8161303e565b61317884613053565b81016020851015613187578190505b61319b61319385613053565b83018261313a565b50505b505050565b600082821c905092915050565b60006131c1600019846008026131a3565b1980831691505092915050565b60006131da83836131b0565b9150826002028217905092915050565b6131f382612516565b67ffffffffffffffff81111561320c5761320b61222b565b5b6132168254612af3565b61322182828561315d565b600060209050601f8311600181146132545760008415613242578287015190505b61324c85826131ce565b8655506132b4565b601f1984166132628661303e565b60005b8281101561328a57848901518255600182019150602085019450602081019050613265565b868310156132a757848901516132a3601f8916826131b0565b8355505b6001600288020188555050505b505050505050565b7f596f7520617265206e6f7420746865206f776e65720000000000000000000000600082015250565b60006132f2601583612521565b91506132fd826132bc565b602082019050919050565b60006020820190508181036000830152613321816132e5565b9050919050565b7f4552433732313a207472616e736665722066726f6d20696e636f72726563742060008201527f6f776e6572000000000000000000000000000000000000000000000000000000602082015250565b6000613384602583612521565b915061338f82613328565b604082019050919050565b600060208201905081810360008301526133b381613377565b9050919050565b7f4552433732313a207472616e7366657220746f20746865207a65726f2061646460008201527f7265737300000000000000000000000000000000000000000000000000000000602082015250565b6000613416602483612521565b9150613421826133ba565b604082019050919050565b6000602082019050818103600083015261344581613409565b9050919050565b7f4552433732313a20617070726f766520746f2063616c6c657200000000000000600082015250565b6000613482601983612521565b915061348d8261344c565b602082019050919050565b600060208201905081810360008301526134b181613475565b9050919050565b7f4552433732313a207472616e7366657220746f206e6f6e20455243373231526560008201527f63656976657220696d706c656d656e7465720000000000000000000000000000602082015250565b6000613514603283612521565b915061351f826134b8565b604082019050919050565b6000602082019050818103600083015261354381613507565b9050919050565b600081519050919050565b600082825260208201905092915050565b60006135718261354a565b61357b8185613555565b935061358b818560208601612532565b6135948161221a565b840191505092915050565b60006080820190506135b46000830187612616565b6135c16020830186612616565b6135ce60408301856123a9565b81810360608301526135e08184613566565b905095945050505050565b6000815190506135fa816123ff565b92915050565b60006020828403121561361657613615612206565b5b6000613624848285016135eb565b91505092915050565b7f4e487b7100000000000000000000000000000000000000000000000000000000600052601260045260246000fd5b7f4e487b7100000000000000000000000000000000000000000000000000000000600052601160045260246000fd5b60006136968261239f565b91506136a18361239f565b92508282039050818111156136b9576136b861365c565b5b92915050565b7f4e487b7100000000000000000000000000000000000000000000000000000000600052603260045260246000fd5b7f4e487b7100000000000000000000000000000000000000000000000000000000600052603160045260246000fdfea26469706673582212203434f20fd21f31cf48ec0caa824c8f743b8f5fe05bf683905e53d9cc186c372e64736f6c63430008130033",
  "immutableReferences": {},
  "source": "//SPDX-License-Identifier: Unlicense\npragma solidity ^0.8.19;\n\nimport \"@openzeppelin/contracts/utils/Counters.sol\";\nimport \"@openzeppelin/contracts/token/ERC721/ERC721.sol\";\nimport \"@openzeppelin/contracts/token/ERC721/extensions/ERC721URIStorage.sol\";\n\ncontract MyNFT is ERC721URIStorage {\n    using Counters for Counters.Counter;\n    Counters.Counter private _tokenIds;\n\n    struct NFT {\n        uint256 price;\n        bool forSale;\n    }\n\n    mapping(uint256 => NFT) public nfts;\n    mapping(string => uint256) private _tokenIdsByURI;\n    mapping(address => uint256[]) private _ownedTokens;\n    mapping(uint256 => uint256) private _ownedTokensIndex;\n\n    constructor() ERC721(\"MyNFT\", \"MNFT\") {}\n\n    function setForSale(uint256 tokenId, uint256 price) internal {\n        require(ownerOf(tokenId) == msg.sender, \"You are not the owner\");\n        nfts[tokenId] = NFT(price, true);\n    }\n\n    function mint(string memory tokenURI, uint256 price) public returns (uint256) {\n        _tokenIds.increment();\n\n        uint256 newItemId = _tokenIds.current();\n        // _mint  ERC-20  ERC-721\n        _mint(msg.sender, newItemId);\n        _setTokenURI(newItemId, tokenURI);\n        _tokenIdsByURI[tokenURI] = newItemId;\n        _addTokenToOwnerEnumeration(msg.sender, newItemId);\n        setForSale(newItemId, price);\n\n        return newItemId;\n    }\n\n    function buyNFT(uint256 tokenId) external payable {\n        NFT storage nft = nfts[tokenId];\n        require(nft.forSale, \"NFT is not for sale\");\n        require(msg.value == nft.price, \"Incorrect value sent\");\n\n        address seller = ownerOf(tokenId);\n\n        // Transfer the NFT to the buyer\n        _transfer(seller, msg.sender, tokenId);\n\n        // Transfer the ETH to the seller\n        payable(seller).transfer(msg.value);\n\n        // Update the NFT status\n        nft.forSale = false;\n    }\n\n    function getTokenIdByTokenURI(string memory tokenURI) public view returns (uint256) {\n        require(_tokenIdsByURI[tokenURI] != 0, \"Token URI does not exist\");\n        return _tokenIdsByURI[tokenURI];\n    }\n\n    function _addTokenToOwnerEnumeration(address to, uint256 tokenId) private {\n        _ownedTokensIndex[tokenId] = _ownedTokens[to].length;\n        _ownedTokens[to].push(tokenId);\n    }\n\n    function _removeTokenFromOwnerEnumeration(address from, uint256 tokenId) private {\n        uint256 lastTokenIndex = _ownedTokens[from].length - 1;\n        uint256 tokenIndex = _ownedTokensIndex[tokenId];\n\n        if (tokenIndex != lastTokenIndex) {\n            uint256 lastTokenId = _ownedTokens[from][lastTokenIndex];\n            _ownedTokens[from][tokenIndex] = lastTokenId;\n            _ownedTokensIndex[lastTokenId] = tokenIndex;\n        }\n\n        _ownedTokens[from].pop();\n        delete _ownedTokensIndex[tokenId];\n    }\n\n    function _beforeTokenTransfer(address from, address to, uint256 tokenId, uint256 batchSize) internal virtual override {\n        super._beforeTokenTransfer(from, to, tokenId, batchSize);\n\n        if (from != address(0)) {\n            _removeTokenFromOwnerEnumeration(from, tokenId);\n        }\n        if (to != address(0)) {\n            _addTokenToOwnerEnumeration(to, tokenId);\n        }\n    }\n\n    function getTokensOfOwner(address owner) public view returns (uint256[] memory) {\n        return _ownedTokens[owner];\n    }\n\n    function totalSupply() public view returns (uint256) {\n        return _tokenIds.current();\n    }\n}\n",
  "sourcePath": "/Users/huke/dapp-learning-demos/contracts/MyNFT.sol",
  "compiler": {
    "name": "solc",
    "version": "0.8.19+commit.7dd6d404.Emscripten.clang"
  },
  "schemaVersion": "3.4.16",
  "updatedAt": "2024-07-31T13:39:14.310Z",
  "networkType": "ethereum",
  "devdoc": {
    "events": {
      "Approval(address,address,uint256)": {
        "details": "Emitted when `owner` enables `approved` to manage the `tokenId` token."
      },
      "ApprovalForAll(address,address,bool)": {
        "details": "Emitted when `owner` enables or disables (`approved`) `operator` to manage all of its assets."
      },
      "BatchMetadataUpdate(uint256,uint256)": {
        "details": "This event emits when the metadata of a range of tokens is changed. So that the third-party platforms such as NFT market could timely update the images and related attributes of the NFTs."
      },
      "MetadataUpdate(uint256)": {
        "details": "This event emits when the metadata of a token is changed. So that the third-party platforms such as NFT market could timely update the images and related attributes of the NFT."
      },
      "Transfer(address,address,uint256)": {
        "details": "Emitted when `tokenId` token is transferred from `from` to `to`."
      }
    },
    "kind": "dev",
    "methods": {
      "approve(address,uint256)": {
        "details": "See {IERC721-approve}."
      },
      "balanceOf(address)": {
        "details": "See {IERC721-balanceOf}."
      },
      "getApproved(uint256)": {
        "details": "See {IERC721-getApproved}."
      },
      "isApprovedForAll(address,address)": {
        "details": "See {IERC721-isApprovedForAll}."
      },
      "name()": {
        "details": "See {IERC721Metadata-name}."
      },
      "ownerOf(uint256)": {
        "details": "See {IERC721-ownerOf}."
      },
      "safeTransferFrom(address,address,uint256)": {
        "details": "See {IERC721-safeTransferFrom}."
      },
      "safeTransferFrom(address,address,uint256,bytes)": {
        "details": "See {IERC721-safeTransferFrom}."
      },
      "setApprovalForAll(address,bool)": {
        "details": "See {IERC721-setApprovalForAll}."
      },
      "supportsInterface(bytes4)": {
        "details": "See {IERC165-supportsInterface}"
      },
      "symbol()": {
        "details": "See {IERC721Metadata-symbol}."
      },
      "tokenURI(uint256)": {
        "details": "See {IERC721Metadata-tokenURI}."
      },
      "transferFrom(address,address,uint256)": {
        "details": "See {IERC721-transferFrom}."
      }
    },
    "version": 1
  },
  "userdoc": {
    "kind": "user",
    "methods": {},
    "version": 1
  }
}